{"abi":[{"type":"constructor","inputs":[],"stateMutability":"nonpayable"},{"type":"function","name":"decrement","inputs":[],"outputs":[],"stateMutability":"nonpayable"},{"type":"function","name":"number","inputs":[],"outputs":[{"name":"","type":"uint256","internalType":"uint256"}],"stateMutability":"view"},{"type":"function","name":"owner","inputs":[],"outputs":[{"name":"","type":"address","internalType":"address"}],"stateMutability":"view"},{"type":"function","name":"reset","inputs":[],"outputs":[],"stateMutability":"nonpayable"}],"bytecode":{"object":"0x6080604052348015600e575f5ffd5b50600a5f819055503360015f6101000a81548173ffffffffffffffffffffffffffffffffffffffff021916908373ffffffffffffffffffffffffffffffffffffffff1602179055506103b7806100635f395ff3fe608060405234801561000f575f5ffd5b506004361061004a575f3560e01c80632baeceb71461004e5780638381f58a146100585780638da5cb5b14610076578063d826f88f14610094575b5f5ffd5b61005661009e565b005b6100606100f6565b60405161006d91906101d0565b60405180910390f35b61007e6100fb565b60405161008b9190610228565b60405180910390f35b61009c610120565b005b5f5f54116100e1576040517f08c379a00000000000000000000000000000000000000000000000000000000081526004016100d89061029b565b60405180910390fd5b60015f546100ef91906102e6565b5f81905550565b5f5481565b60015f9054906101000a900473ffffffffffffffffffffffffffffffffffffffff1681565b60015f9054906101000a900473ffffffffffffffffffffffffffffffffffffffff1673ffffffffffffffffffffffffffffffffffffffff163373ffffffffffffffffffffffffffffffffffffffff16146101af576040517f08c379a00000000000000000000000000000000000000000000000000000000081526004016101a690610363565b60405180910390fd5b600a5f81905550565b5f819050919050565b6101ca816101b8565b82525050565b5f6020820190506101e35f8301846101c1565b92915050565b5f73ffffffffffffffffffffffffffffffffffffffff82169050919050565b5f610212826101e9565b9050919050565b61022281610208565b82525050565b5f60208201905061023b5f830184610219565b92915050565b5f82825260208201905092915050565b7f4e756d6265722073686f756c642062652067726561746572207468616e2030005f82015250565b5f610285601f83610241565b915061029082610251565b602082019050919050565b5f6020820190508181035f8301526102b281610279565b9050919050565b7f4e487b71000000000000000000000000000000000000000000000000000000005f52601160045260245ffd5b5f6102f0826101b8565b91506102fb836101b8565b9250828203905081811115610313576103126102b9565b5b92915050565b7f4f6e6c792063616c6c61626c65206279206f776e6572210000000000000000005f82015250565b5f61034d601783610241565b915061035882610319565b602082019050919050565b5f6020820190508181035f83015261037a81610341565b905091905056fea264697066735822122008a46ea14e59753a911889a8f7d4ef20fbe220b9352ac7c298fb1a93334fac6c64736f6c634300081c0033","linkReferences":{}},"methodIdentifiers":{"decrement()":"2baeceb7","number()":"8381f58a","owner()":"8da5cb5b","reset()":"d826f88f"},"id":0}